{
  "abi": [
    {
      "inputs": [
        {
          "internalType": "address",
          "name": "_implementation_addr",
          "type": "address"
        }
      ],
      "stateMutability": "nonpayable",
      "type": "constructor"
    },
    {
      "anonymous": false,
      "inputs": [
        {
          "indexed": false,
          "internalType": "address",
          "name": "",
          "type": "address"
        },
        {
          "indexed": false,
          "internalType": "address",
          "name": "",
          "type": "address"
        }
      ],
      "name": "putToSleepCall",
      "type": "event"
    },
    {
      "stateMutability": "payable",
      "type": "fallback"
    },
    {
      "inputs": [],
      "name": "asleep",
      "outputs": [
        {
          "internalType": "bool",
          "name": "",
          "type": "bool"
        }
      ],
      "stateMutability": "view",
      "type": "function"
    },
    {
      "inputs": [],
      "name": "implementation_addr",
      "outputs": [
        {
          "internalType": "address",
          "name": "",
          "type": "address"
        }
      ],
      "stateMutability": "view",
      "type": "function"
    },
    {
      "inputs": [],
      "name": "owner",
      "outputs": [
        {
          "internalType": "address",
          "name": "",
          "type": "address"
        }
      ],
      "stateMutability": "view",
      "type": "function"
    },
    {
      "inputs": [],
      "name": "punch",
      "outputs": [],
      "stateMutability": "payable",
      "type": "function"
    },
    {
      "inputs": [],
      "name": "putToSleep",
      "outputs": [],
      "stateMutability": "nonpayable",
      "type": "function"
    }
  ],
  "bytecode": {
    "object": "0x608060405234801561001057600080fd5b5060405161034338038061034383398101604081905261002f9161006e565b600080546001600160a01b03909216610100026001600160a81b0319909216919091178155600280546001600160a01b0319163317905560015561009e565b60006020828403121561008057600080fd5b81516001600160a01b038116811461009757600080fd5b9392505050565b610296806100ad6000396000f3fe60806040526004361061004a5760003560e01c8063682bb8131461005457806369fcb3b01461005c5780638da5cb5b1461007157806398107910146100ae578063b11151c5146100d8575b6100526100fd565b005b610052610119565b34801561006857600080fd5b50610052610154565b34801561007d57600080fd5b50600254610091906001600160a01b031681565b6040516001600160a01b0390911681526020015b60405180910390f35b3480156100ba57600080fd5b506000546100c89060ff1681565b60405190151581526020016100a5565b3480156100e457600080fd5b506000546100919061010090046001600160a01b031681565b6000546101179061010090046001600160a01b0316610215565b565b6a084595161401484a00000034111561013b576000805460ff19166001179055565b600180600082825461014d9190610239565b9091555050565b600254604080513381526001600160a01b0390921660208301527fe3d0427151d79177288ddd073e93a8e464e6b1b73d01040218a101fae392b542910160405180910390a16002546001600160a01b031633146102065760405162461bcd60e51b815260206004820152602660248201527f596f752063616e277420646f20746861742e205468652079657469206d61756c60448201526539903cb7ba9760d11b606482015260840160405180910390fd5b6000805460ff19166001179055565b3660008037600080366000845af43d6000803e808015610234573d6000f35b3d6000fd5b8082018082111561025a57634e487b7160e01b600052601160045260246000fd5b9291505056fea26469706673582212206b044be893fc6212b16eebb026358ca3942e34c9bc3e0f367a671953ef080f7c64736f6c63430008140033",
    "linkReferences": {}
  },
  "methodIdentifiers": {
    "asleep()": "98107910",
    "implementation_addr()": "b11151c5",
    "owner()": "8da5cb5b",
    "punch()": "682bb813",
    "putToSleep()": "69fcb3b0"
  },
  "id": 21
}