{
  "abi": [
    {
      "inputs": [
        {
          "internalType": "address",
          "name": "_icyToken",
          "type": "address"
        }
      ],
      "stateMutability": "nonpayable",
      "type": "constructor"
    },
    {
      "inputs": [
        {
          "internalType": "address",
          "name": "",
          "type": "address"
        }
      ],
      "name": "bananaBalance",
      "outputs": [
        {
          "internalType": "uint256",
          "name": "",
          "type": "uint256"
        }
      ],
      "stateMutability": "view",
      "type": "function"
    },
    {
      "inputs": [
        {
          "internalType": "bytes32",
          "name": "theHolyWords",
          "type": "bytes32"
        }
      ],
      "name": "becomeAnApe",
      "outputs": [],
      "stateMutability": "nonpayable",
      "type": "function"
    },
    {
      "inputs": [
        {
          "internalType": "uint256",
          "name": "amount",
          "type": "uint256"
        }
      ],
      "name": "buyBanana",
      "outputs": [],
      "stateMutability": "nonpayable",
      "type": "function"
    },
    {
      "inputs": [],
      "name": "claimNewRank",
      "outputs": [],
      "stateMutability": "nonpayable",
      "type": "function"
    },
    {
      "inputs": [
        {
          "internalType": "bytes32",
          "name": "theEvilWords",
          "type": "bytes32"
        }
      ],
      "name": "dissolveCouncilOfTheApes",
      "outputs": [],
      "stateMutability": "nonpayable",
      "type": "function"
    },
    {
      "inputs": [],
      "name": "dissolved",
      "outputs": [
        {
          "internalType": "bool",
          "name": "",
          "type": "bool"
        }
      ],
      "stateMutability": "view",
      "type": "function"
    },
    {
      "inputs": [
        {
          "internalType": "address",
          "name": "target",
          "type": "address"
        }
      ],
      "name": "getBananaBalance",
      "outputs": [
        {
          "internalType": "uint256",
          "name": "",
          "type": "uint256"
        }
      ],
      "stateMutability": "view",
      "type": "function"
    },
    {
      "inputs": [
        {
          "internalType": "address",
          "name": "target",
          "type": "address"
        }
      ],
      "name": "getMemberClass",
      "outputs": [
        {
          "internalType": "enum CouncilOfApes.apeClass",
          "name": "",
          "type": "uint8"
        }
      ],
      "stateMutability": "view",
      "type": "function"
    },
    {
      "inputs": [
        {
          "internalType": "address",
          "name": "target",
          "type": "address"
        }
      ],
      "name": "getVotes",
      "outputs": [
        {
          "internalType": "uint256",
          "name": "",
          "type": "uint256"
        }
      ],
      "stateMutability": "view",
      "type": "function"
    },
    {
      "inputs": [],
      "name": "icyToken",
      "outputs": [
        {
          "internalType": "contract IERC20",
          "name": "",
          "type": "address"
        }
      ],
      "stateMutability": "view",
      "type": "function"
    },
    {
      "inputs": [],
      "name": "isDissolved",
      "outputs": [
        {
          "internalType": "bool",
          "name": "",
          "type": "bool"
        }
      ],
      "stateMutability": "view",
      "type": "function"
    },
    {
      "inputs": [
        {
          "internalType": "uint256",
          "name": "amount",
          "type": "uint256"
        },
        {
          "internalType": "address",
          "name": "target",
          "type": "address"
        }
      ],
      "name": "issueBanana",
      "outputs": [],
      "stateMutability": "nonpayable",
      "type": "function"
    },
    {
      "inputs": [
        {
          "internalType": "address",
          "name": "",
          "type": "address"
        }
      ],
      "name": "members",
      "outputs": [
        {
          "internalType": "enum CouncilOfApes.apeClass",
          "name": "",
          "type": "uint8"
        }
      ],
      "stateMutability": "view",
      "type": "function"
    },
    {
      "inputs": [
        {
          "internalType": "uint256",
          "name": "amount",
          "type": "uint256"
        }
      ],
      "name": "sellBanana",
      "outputs": [],
      "stateMutability": "nonpayable",
      "type": "function"
    },
    {
      "inputs": [
        {
          "internalType": "address",
          "name": "target",
          "type": "address"
        },
        {
          "internalType": "uint256",
          "name": "amount",
          "type": "uint256"
        }
      ],
      "name": "vote",
      "outputs": [],
      "stateMutability": "nonpayable",
      "type": "function"
    },
    {
      "inputs": [
        {
          "internalType": "address",
          "name": "",
          "type": "address"
        }
      ],
      "name": "votes",
      "outputs": [
        {
          "internalType": "uint256",
          "name": "",
          "type": "uint256"
        }
      ],
      "stateMutability": "view",
      "type": "function"
    }
  ],
  "bytecode": {
    "object": "0x608060405234801561001057600080fd5b50604051610b07380380610b0783398101604081905261002f9161005e565b600380546001600160a01b03909216610100026001600160a81b0319909216919091179055600060045561008e565b60006020828403121561007057600080fd5b81516001600160a01b038116811461008757600080fd5b9392505050565b610a6a8061009d6000396000f3fe608060405234801561001057600080fd5b50600436106101005760003560e01c806385b90a3611610097578063d8bff5a511610066578063d8bff5a51461026e578063e0fe939f1461028e578063e10591f3146102ba578063fb673569146102c757600080fd5b806385b90a36146101db5780639ab24eb0146101ee578063b4155bac14610225578063bdac388d1461024557600080fd5b80635f74bbde116100d35780635f74bbde14610172578063618aaadc146101855780636497c156146101985780637684cf70146101ab57600080fd5b806303e607311461010557806308ae4b0c1461011a5780633730a5f8146101535780633b77b2941461016a575b600080fd5b61011861011336600461085e565b6102da565b005b61013d610128366004610893565b60026020526000908152604090205460ff1681565b60405161014a91906108cb565b60405180910390f35b60035460ff165b604051901515815260200161014a565b6101186103dd565b6101186101803660046108f3565b610495565b61011861019336600461091d565b610549565b6101186101a636600461085e565b610627565b6003546101c39061010090046001600160a01b031681565b6040516001600160a01b03909116815260200161014a565b6101186101e936600461085e565b6106c9565b6102176101fc366004610893565b6001600160a01b031660009081526001602052604090205490565b60405190815260200161014a565b610217610233366004610893565b60006020819052908152604090205481565b610217610253366004610893565b6001600160a01b031660009081526020819052604090205490565b61021761027c366004610893565b60016020526000908152604090205481565b61013d61029c366004610893565b6001600160a01b031660009081526002602052604090205460ff1690565b60035461015a9060ff1681565b6101186102d536600461085e565b610743565b60035460ff16156103065760405162461bcd60e51b81526004016102fd90610949565b60405180910390fd5b60013360009081526002602052604090205460ff16600481111561032c5761032c6108b5565b1461033657600080fd5b6003546040516323b872dd60e01b8152336004820152306024820152604481018390526101009091046001600160a01b0316906323b872dd906064016020604051808303816000875af1158015610391573d6000803e3d6000fd5b505050506040513d601f19601f820116820180604052508101906103b59190610980565b5033600090815260208190526040812080548392906103d59084906109b8565b909155505050565b33600090815260016020526040902054633b9aca001161041f5733600090815260026020526040902080546004919060ff19166001835b021790555042600455565b33600090815260016020526040902054620f4240116104595733600090815260026020526040902080546003919060ff1916600183610414565b336000908152600160205260409020546103e81161049357336000908152600260208190526040909120805460ff19169091179055426004555b565b336000908152602081905260409020548111156104f45760405162461bcd60e51b815260206004820181905260248201527f596f7520646f6e277420686176652074686174206d616e792062616e616e617360448201526064016102fd565b33600090815260208190526040812080548392906105139084906109d1565b90915550506001600160a01b038216600090815260016020526040812080548392906105409084906109b8565b90915550505050565b60035460ff161561056c5760405162461bcd60e51b81526004016102fd90610949565b60043360009081526002602052604090205460ff166004811115610592576105926108b5565b146105af5760405162461bcd60e51b81526004016102fd906109e4565b600082116105ff5760405162461bcd60e51b815260206004820181905260248201527f596f75206d757374206973737565206174206c6561737420312062616e616e6160448201526064016102fd565b6001600160a01b038116600090815260208190526040812080548492906105409084906109b8565b60035460ff161561064a5760405162461bcd60e51b81526004016102fd90610949565b60043360009081526002602052604090205460ff166004811115610670576106706108b5565b1461068d5760405162461bcd60e51b81526004016102fd906109e4565b7f11c850933fb5ec32f0b575ce1d148d17b74607080ad03b232cff21edbdaa417f81146106b957600080fd5b506003805460ff19166001179055565b60035460ff16156106ec5760405162461bcd60e51b81526004016102fd90610949565b7f4128b49f5d615e47486fa7bc6f0eb485f8362c957907bb0ec7bd34e4c3653936811461071857600080fd5b50336000908152600260209081526040808320805460ff191660019081179091559183905290912055565b60035460ff16156107665760405162461bcd60e51b81526004016102fd90610949565b336000908152602081905260409020548111156107c55760405162461bcd60e51b815260206004820181905260248201527f596f7520646f6e277420686176652074686174206d616e792062616e616e617360448201526064016102fd565b60035460405163a9059cbb60e01b8152336004820152602481018390526101009091046001600160a01b03169063a9059cbb906044016020604051808303816000875af115801561081a573d6000803e3d6000fd5b505050506040513d601f19601f8201168201806040525081019061083e9190610980565b5033600090815260208190526040812080548392906103d59084906109d1565b60006020828403121561087057600080fd5b5035919050565b80356001600160a01b038116811461088e57600080fd5b919050565b6000602082840312156108a557600080fd5b6108ae82610877565b9392505050565b634e487b7160e01b600052602160045260246000fd5b60208101600583106108ed57634e487b7160e01b600052602160045260246000fd5b91905290565b6000806040838503121561090657600080fd5b61090f83610877565b946020939093013593505050565b6000806040838503121561093057600080fd5b8235915061094060208401610877565b90509250929050565b6020808252601e908201527f54686520636f756e63696c20686173206265656e20646973736f6c7665640000604082015260600190565b60006020828403121561099257600080fd5b815180151581146108ae57600080fd5b634e487b7160e01b600052601160045260246000fd5b808201808211156109cb576109cb6109a2565b92915050565b818103818111156109cb576109cb6109a2565b60208082526030908201527f546869732066756e6374696f6e2063616e206f6e6c792062652063616c6c656460408201526f20627920616e20616c7068612061706560801b60608201526080019056fea264697066735822122053061743e9df3a02480d71fc0000244fb112242c5924cb14179dc69c6aa590a964736f6c63430008140033",
    "linkReferences": {}
  },
  "methodIdentifiers": {
    "bananaBalance(address)": "b4155bac",
    "becomeAnApe(bytes32)": "85b90a36",
    "buyBanana(uint256)": "03e60731",
    "claimNewRank()": "3b77b294",
    "dissolveCouncilOfTheApes(bytes32)": "6497c156",
    "dissolved()": "e10591f3",
    "getBananaBalance(address)": "bdac388d",
    "getMemberClass(address)": "e0fe939f",
    "getVotes(address)": "9ab24eb0",
    "icyToken()": "7684cf70",
    "isDissolved()": "3730a5f8",
    "issueBanana(uint256,address)": "618aaadc",
    "members(address)": "08ae4b0c",
    "sellBanana(uint256)": "fb673569",
    "vote(address,uint256)": "5f74bbde",
    "votes(address)": "d8bff5a5"
  },
  "id": 22
}