{
  "abi": [
    {
      "inputs": [],
      "stateMutability": "nonpayable",
      "type": "constructor"
    },
    {
      "inputs": [
        {
          "internalType": "address",
          "name": "",
          "type": "address"
        }
      ],
      "name": "balances",
      "outputs": [
        {
          "internalType": "uint256",
          "name": "",
          "type": "uint256"
        }
      ],
      "stateMutability": "view",
      "type": "function"
    },
    {
      "inputs": [
        {
          "internalType": "uint256",
          "name": "amount",
          "type": "uint256"
        }
      ],
      "name": "burn",
      "outputs": [],
      "stateMutability": "nonpayable",
      "type": "function"
    },
    {
      "inputs": [],
      "name": "buy",
      "outputs": [],
      "stateMutability": "payable",
      "type": "function"
    },
    {
      "inputs": [
        {
          "internalType": "uint256",
          "name": "amount",
          "type": "uint256"
        }
      ],
      "name": "defrost",
      "outputs": [],
      "stateMutability": "nonpayable",
      "type": "function"
    },
    {
      "inputs": [
        {
          "internalType": "uint256",
          "name": "amount",
          "type": "uint256"
        }
      ],
      "name": "freeze",
      "outputs": [],
      "stateMutability": "nonpayable",
      "type": "function"
    },
    {
      "inputs": [
        {
          "internalType": "address",
          "name": "",
          "type": "address"
        }
      ],
      "name": "frozen",
      "outputs": [
        {
          "internalType": "uint256",
          "name": "",
          "type": "uint256"
        }
      ],
      "stateMutability": "view",
      "type": "function"
    },
    {
      "inputs": [
        {
          "internalType": "uint256",
          "name": "amount",
          "type": "uint256"
        }
      ],
      "name": "sell",
      "outputs": [],
      "stateMutability": "nonpayable",
      "type": "function"
    }
  ],
  "bytecode": {
    "object": "0x608060405234801561001057600080fd5b50600080546001600160a01b03191633179055610557806100326000396000f3fe6080604052600436106100705760003560e01c8063d05166501161004e578063d0516650146100de578063d7a78db81461010b578063e4849b321461012b578063f596fe841461014b57600080fd5b806327e235e31461007557806342966c68146100b4578063a6f2ae3a146100d6575b600080fd5b34801561008157600080fd5b506100a2610090366004610496565b60016020526000908152604090205481565b60405190815260200160405180910390f35b3480156100c057600080fd5b506100d46100cf3660046104c6565b61016b565b005b6100d461020c565b3480156100ea57600080fd5b506100a26100f9366004610496565b60026020526000908152604090205481565b34801561011757600080fd5b506100d46101263660046104c6565b610218565b34801561013757600080fd5b506100d46101463660046104c6565b6102d2565b34801561015757600080fd5b506100d46101663660046104c6565b6103c3565b336000908152600160205260409020548111156101e55760405162461bcd60e51b815260206004820152602d60248201527f596f752063616e206e6f74206275726e2074686973206d75636820617320796f60448201526c3a9030b932903837b7b91030b360991b60648201526084015b60405180910390fd5b33600090815260016020526040812080548392906102049084906104f5565b909155505050565b6102163433610465565b565b3360009081526001602052604090205481111561028f5760405162461bcd60e51b815260206004820152602f60248201527f596f752063616e206e6f7420667265657a652074686973206d7563682061732060448201526e3cb7ba9030b932903837b7b91030b360891b60648201526084016101dc565b33600090815260026020526040812080548392906102ae90849061050e565b909155505033600090815260016020526040812080548392906102049084906104f5565b336000908152600160205260409020548111156103475760405162461bcd60e51b815260206004820152602d60248201527f596f752063616e206e6f742073656c6c2074686973206d75636820617320796f60448201526c3a9030b932903837b7b91030b360991b60648201526084016101dc565b336000908152600160205260408120546103629083906104f5565b60405190915033908390600081818185875af1925050503d80600081146103a5576040519150601f19603f3d011682016040523d82523d6000602084013e6103aa565b606091505b5050336000908152600160205260409020919091555050565b336000908152600260205260409020548111156104225760405162461bcd60e51b815260206004820152601e60248201527f596f752063616e206e6f7420756e667265657a652074686973206d756368000060448201526064016101dc565b33600090815260026020526040812080548392906104419084906104f5565b9091555050336000908152600160205260408120805483929061020490849061050e565b6001600160a01b0381166000908152600160205260408120805484929061048d90849061050e565b90915550505050565b6000602082840312156104a857600080fd5b81356001600160a01b03811681146104bf57600080fd5b9392505050565b6000602082840312156104d857600080fd5b5035919050565b634e487b7160e01b600052601160045260246000fd5b81810381811115610508576105086104df565b92915050565b80820180821115610508576105086104df56fea2646970667358221220b6557b97795c5f6488e2c52270ee775ed0faa800586ca5f115e7111d5806a51864736f6c63430008140033",
    "linkReferences": {}
  },
  "methodIdentifiers": {
    "balances(address)": "27e235e3",
    "burn(uint256)": "42966c68",
    "buy()": "a6f2ae3a",
    "defrost(uint256)": "f596fe84",
    "freeze(uint256)": "d7a78db8",
    "frozen(address)": "d0516650",
    "sell(uint256)": "e4849b32"
  },
  "id": 17
}