{
  "abi": [
    {
      "inputs": [
        {
          "internalType": "uint8",
          "name": "index",
          "type": "uint8"
        },
        {
          "internalType": "uint256",
          "name": "value",
          "type": "uint256"
        }
      ],
      "name": "quickStore",
      "outputs": [],
      "stateMutability": "payable",
      "type": "function"
    },
    {
      "inputs": [
        {
          "internalType": "string",
          "name": "item",
          "type": "string"
        },
        {
          "internalType": "uint256",
          "name": "slot_index",
          "type": "uint256"
        }
      ],
      "name": "store",
      "outputs": [],
      "stateMutability": "payable",
      "type": "function"
    }
  ],
  "bytecode": {
    "object": "0x608060405234801561001057600080fd5b5061041e806100206000396000f3fe6080604052600436106100295760003560e01c806339b683a31461002e5780637408a1d714610043575b600080fd5b61004161003c3660046101a2565b610056565b005b6100416100513660046101ea565b6100bd565b346105391461006457600080fd5b8160ff166000036100755760025550565b8160ff166001036100865760035550565b8160ff166002036100975760045550565b8160ff166003036100a85760055550565b8160ff166004036100b95760068190555b5050565b34610539146100cb57600080fd5b6000818152602081905260409020546001600160a01b0316158061010557506000818152602081905260409020546001600160a01b031633145b6101685760405162461bcd60e51b815260206004820152602a60248201527f746869732073746f726520697320616c7265616479207573656420627920736f6044820152696d656f6e6520656c736560b01b606482015260840160405180910390fd5b60008181526001602052604090206101808382610328565b50600090815260208190526040902080546001600160a01b0319163317905550565b600080604083850312156101b557600080fd5b823560ff811681146101c657600080fd5b946020939093013593505050565b634e487b7160e01b600052604160045260246000fd5b600080604083850312156101fd57600080fd5b823567ffffffffffffffff8082111561021557600080fd5b818501915085601f83011261022957600080fd5b81358181111561023b5761023b6101d4565b604051601f8201601f19908116603f01168101908382118183101715610263576102636101d4565b8160405282815288602084870101111561027c57600080fd5b826020860160208301376000602093820184015298969091013596505050505050565b600181811c908216806102b357607f821691505b6020821081036102d357634e487b7160e01b600052602260045260246000fd5b50919050565b601f82111561032357600081815260208120601f850160051c810160208610156103005750805b601f850160051c820191505b8181101561031f5782815560010161030c565b5050505b505050565b815167ffffffffffffffff811115610342576103426101d4565b61035681610350845461029f565b846102d9565b602080601f83116001811461038b57600084156103735750858301515b600019600386901b1c1916600185901b17855561031f565b600085815260208120601f198616915b828110156103ba5788860151825594840194600190910190840161039b565b50858210156103d85787850151600019600388901b60f8161c191681555b5050505050600190811b0190555056fea26469706673582212201f98e149be320e23bc90d91b1cd7f835eaa9ed7d70fd5a07faae79f1bebe5e4564736f6c63430008140033",
    "linkReferences": {}
  },
  "methodIdentifiers": {
    "quickStore(uint8,uint256)": "39b683a3",
    "store(string,uint256)": "7408a1d7"
  },
  "id": 20
}