{
  "abi": [
    {
      "inputs": [],
      "stateMutability": "payable",
      "type": "constructor"
    },
    {
      "inputs": [],
      "name": "TARGET",
      "outputs": [
        {
          "internalType": "contract IcyExchange",
          "name": "",
          "type": "address"
        }
      ],
      "stateMutability": "view",
      "type": "function"
    },
    {
      "inputs": [],
      "name": "already_claimed",
      "outputs": [
        {
          "internalType": "bool",
          "name": "",
          "type": "bool"
        }
      ],
      "stateMutability": "view",
      "type": "function"
    },
    {
      "inputs": [],
      "name": "claimFreeTokens",
      "outputs": [],
      "stateMutability": "nonpayable",
      "type": "function"
    },
    {
      "inputs": [],
      "name": "djungleCoin",
      "outputs": [
        {
          "internalType": "contract IERC20",
          "name": "",
          "type": "address"
        }
      ],
      "stateMutability": "view",
      "type": "function"
    },
    {
      "inputs": [],
      "name": "isSolved",
      "outputs": [
        {
          "internalType": "bool",
          "name": "",
          "type": "bool"
        }
      ],
      "stateMutability": "view",
      "type": "function"
    },
    {
      "inputs": [],
      "name": "monkeyToken",
      "outputs": [
        {
          "internalType": "contract IERC20",
          "name": "",
          "type": "address"
        }
      ],
      "stateMutability": "view",
      "type": "function"
    }
  ],
  "bytecode": {
    "object": "0x60a0604052674563918244f4000060405161001990610423565b6040518091039082f0905080158015610036573d6000803e3d6000fd5b506001600160a01b03166080819052604080516338b1b50760e21b815290517f4128b49f5d615e47486fa7bc6f0eb485f8362c957907bb0ec7bd34e4c3653936929163e2c6d41c9160048083019260209291908290030181865afa1580156100a2573d6000803e3d6000fd5b505050506040513d601f19601f820116820180604052508101906100c6919061043d565b6001600160a01b03166385b90a36826040518263ffffffff1660e01b81526004016100f391815260200190565b600060405180830381600087803b15801561010d57600080fd5b505af1158015610121573d6000803e3d6000fd5b505050503060405161013290610430565b6001600160a01b039091168152606060208201819052600b908201526a26b7b735b2bcaa37b5b2b760a91b608082015260a060408201819052600490820152634d4f4e4b60e01b60c082015260e001604051809103906000f08015801561019d573d6000803e3d6000fd5b50600080546001600160a01b0319166001600160a01b039290921691909117905560405130906101cc90610430565b6001600160a01b039091168152606060208201819052600b908201526a22353ab733b632a1b7b4b760a91b608082015260a06040820181905260079082015266444a554e474c4560c81b60c082015260e001604051809103906000f08015801561023a573d6000803e3d6000fd5b50600180546001600160a01b0319166001600160a01b0392831617905560005460805160405163095ea7b360e01b81529083166004820152620186a0602482015291169063095ea7b3906044016020604051808303816000875af11580156102a6573d6000803e3d6000fd5b505050506040513d601f19601f820116820180604052508101906102ca919061046d565b5060015460805160405163095ea7b360e01b81526001600160a01b039182166004820152620186a0602482015291169063095ea7b3906044016020604051808303816000875af1158015610322573d6000803e3d6000fd5b505050506040513d601f19601f82011682018060405250810190610346919061046d565b50608051600054604051634824fce960e11b81526001600160a01b039182166004820152911690639049f9d290670de0b6b3a7640000906024016000604051808303818588803b15801561039957600080fd5b505af11580156103ad573d6000803e3d6000fd5b5050608051600154604051634824fce960e11b81526001600160a01b03918216600482015291169350639049f9d29250670de0b6b3a764000091506024016000604051808303818588803b15801561040457600080fd5b505af1158015610418573d6000803e3d6000fd5b50505050505061048f565b612c728061084183390190565b610ae5806134b383390190565b60006020828403121561044f57600080fd5b81516001600160a01b038116811461046657600080fd5b9392505050565b60006020828403121561047f57600080fd5b8151801515811461046657600080fd5b6080516103916104b06000396000818160db015261010b01526103916000f3fe608060405234801561001057600080fd5b50600436106100625760003560e01c80634c91af3a14610067578063514dd4991461009057806364d98f6e146100bb578063843ed335146100c3578063cc1f2afa146100d6578063f14d2181146100fd575b600080fd5b60015461007b90600160a01b900460ff1681565b60405190151581526020015b60405180910390f35b6000546100a3906001600160a01b031681565b6040516001600160a01b039091168152602001610087565b61007b610107565b6001546100a3906001600160a01b031681565b6100a37f000000000000000000000000000000000000000000000000000000000000000081565b6101056101f1565b005b60007f00000000000000000000000000000000000000000000000000000000000000006001600160a01b031663e2c6d41c6040518163ffffffff1660e01b8152600401602060405180830381865afa158015610167573d6000803e3d6000fd5b505050506040513d601f19601f8201168201806040525081019061018b9190610309565b6001600160a01b0316633730a5f86040518163ffffffff1660e01b8152600401602060405180830381865afa1580156101c8573d6000803e3d6000fd5b505050506040513d601f19601f820116820180604052508101906101ec9190610339565b905090565b600154600160a01b900460ff161561020857600080fd5b60005460405163a9059cbb60e01b8152336004820152606460248201526001600160a01b039091169063a9059cbb906044016020604051808303816000875af1158015610259573d6000803e3d6000fd5b505050506040513d601f19601f8201168201806040525081019061027d9190610339565b5060015460405163a9059cbb60e01b8152336004820152606460248201526001600160a01b039091169063a9059cbb906044016020604051808303816000875af11580156102cf573d6000803e3d6000fd5b505050506040513d601f19601f820116820180604052508101906102f39190610339565b506001805460ff60a01b1916600160a01b179055565b60006020828403121561031b57600080fd5b81516001600160a01b038116811461033257600080fd5b9392505050565b60006020828403121561034b57600080fd5b8151801515811461033257600080fdfea2646970667358221220899778d52aa92088ea30dca30a0f6f5b594ff1b00a168da008215fb4cda6a51864736f6c63430008140033608060405234674563918244f40000146100735760405162461bcd60e51b815260206004820152602b60248201527f596f75206d75737420706179203520457468657220746f20637265617465207460448201526a68652065786368616e676560a81b606482015260840160405180910390fd5b3060405161008090610165565b6001600160a01b0390911681526060602082018190526008908201526724b1bcaa37b5b2b760c11b608082015260a0604082018190526003908201526249435960e81b60c082015260e001604051809103906000f0801580156100e7573d6000803e3d6000fd5b50600080546001600160a01b0319166001600160a01b0392909216918217905560405161011390610172565b6001600160a01b039091168152602001604051809103906000f08015801561013f573d6000803e3d6000fd5b50600180546001600160a01b0319166001600160a01b039290921691909117905561017f565b610ae58061168683390190565b610b078061216b83390190565b6114f88061018e6000396000f3fe60806040526004361061007b5760003560e01c8063bbe4f6db1161004e578063bbe4f6db14610129578063cc08b4b814610162578063df791e5014610182578063e2c6d41c146101a257600080fd5b80637684cf70146100805780638eec5d70146100bd5780639049f9d2146100dc578063b2217281146100f1575b600080fd5b34801561008c57600080fd5b506000546100a0906001600160a01b031681565b6040516001600160a01b0390911681526020015b60405180910390f35b3480156100c957600080fd5b506004545b6040519081526020016100b4565b6100ef6100ea366004610cb5565b6101c2565b005b3480156100fd57600080fd5b506100ce61010c366004610cd9565b600360209081526000928352604080842090915290825290205481565b34801561013557600080fd5b506100a0610144366004610cb5565b6001600160a01b039081166000908152600260205260409020541690565b34801561016e57600080fd5b506100ef61017d366004610d12565b61049c565b34801561018e57600080fd5b506100ef61019d366004610d54565b610ad6565b3480156101ae57600080fd5b506001546100a0906001600160a01b031681565b6001805460405163e0fe939f60e01b81523360048201526001600160a01b039091169063e0fe939f90602401602060405180830381865afa15801561020b573d6000803e3d6000fd5b505050506040513d601f19601f8201168201806040525081019061022f9190610dab565b600481111561024057610240610d95565b101561024b57600080fd5b34670de0b6b3a7640000146102b55760405162461bcd60e51b815260206004820152602560248201527f596f75206d75737420706179203120457468657220746f206372656174652061604482015264081c1bdbdb60da1b60648201526084015b60405180910390fd5b6001600160a01b03818116600090815260026020526040902054161561031d5760405162461bcd60e51b815260206004820152601860248201527f5468697320706f6f6c20616c726561647920657869737473000000000000000060448201526064016102ac565b6000546040516001600160a01b0390911690829061033a90610c90565b6001600160a01b03928316815291166020820152604001604051809103906000f08015801561036d573d6000803e3d6000fd5b506001600160a01b038281166000818152600260205260409081902080546001600160a01b0319169490931693841790925590516323b872dd60e01b81523360048201526024810192909252620186a06044830152906323b872dd906064016020604051808303816000875af11580156103eb573d6000803e3d6000fd5b505050506040513d601f19601f8201168201806040525081019061040f9190610dcc565b50600080546001600160a01b038381168352600260205260409283902054925163a9059cbb60e01b81529281166004840152620186a06024840152169063a9059cbb906044016020604051808303816000875af1158015610474573d6000803e3d6000fd5b505050506040513d601f19601f820116820180604052508101906104989190610dcc565b5050565b6001805460405163e0fe939f60e01b81523360048201526001600160a01b039091169063e0fe939f90602401602060405180830381865afa1580156104e5573d6000803e3d6000fd5b505050506040513d601f19601f820116820180604052508101906105099190610dab565b600481111561051a5761051a610d95565b101561052557600080fd5b600082116105805760405162461bcd60e51b815260206004820152602260248201527f596f75206d757374206c656e64206f7574206174206c65617374203120746f6b60448201526132b760f11b60648201526084016102ac565b6000546040516370a0823160e01b81523060048201526001600160a01b03909116906370a0823190602401602060405180830381865afa1580156105c8573d6000803e3d6000fd5b505050506040513d601f19601f820116820180604052508101906105ec9190610dee565b82111561063b5760405162461bcd60e51b815260206004820152601b60248201527f57652063616e2774206c656e6420796f752074686973206d756368000000000060448201526064016102ac565b6305f5e100836001600160a01b03166318160ddd6040518163ffffffff1660e01b8152600401602060405180830381865afa15801561067e573d6000803e3d6000fd5b505050506040513d601f19601f820116820180604052508101906106a29190610dee565b11156106f05760405162461bcd60e51b815260206004820152601a60248201527f53686974636f696e7320617265206e6f7420616363657074656400000000000060448201526064016102ac565b6001600160a01b03838116600090815260026020526040902054166107575760405162461bcd60e51b815260206004820152601860248201527f5468697320706f6f6c20646f6573206e6f74206578697374000000000000000060448201526064016102ac565b6001600160a01b0383811660009081526002602052604080822054905163351935c760e21b8152600481018690529192169063d464d71c90602401602060405180830381865afa1580156107af573d6000803e3d6000fd5b505050506040513d601f19601f820116820180604052508101906107d39190610dee565b90506305f5e10081111561084f5760405162461bcd60e51b815260206004820152603760248201527f53686974636f696e7320617265207374696c6c206e6f7420616363657074656460448201527f2c20646f6e27742074727920746f20636865617420757300000000000000000060648201526084016102ac565b6040516323b872dd60e01b8152336004820152306024820152604481018290526001600160a01b038516906323b872dd906064016020604051808303816000875af11580156108a2573d6000803e3d6000fd5b505050506040513d601f19601f820116820180604052508101906108c69190610dcc565b5060005460405163a9059cbb60e01b8152336004820152602481018590526001600160a01b039091169063a9059cbb906044016020604051808303816000875af1158015610918573d6000803e3d6000fd5b505050506040513d601f19601f8201168201806040525081019061093c9190610dcc565b506000826001600160a01b03168460405160240161095c91815260200190565b60408051601f198184030181529181526020820180516001600160e01b0316634fd9cb8160e01b179052516109919190610e07565b6000604051808303816000865af19150503d80600081146109ce576040519150601f19603f3d011682016040523d82523d6000602084013e6109d3565b606091505b50509050806109e157600080fd5b6000546040516323b872dd60e01b8152336004820152306024820152604481018690526001600160a01b03909116906323b872dd906064016020604051808303816000875af1158015610a38573d6000803e3d6000fd5b505050506040513d601f19601f82011682018060405250810190610a5c9190610dcc565b5060405163a9059cbb60e01b8152336004820152602481018390526001600160a01b0386169063a9059cbb906044016020604051808303816000875af1158015610aaa573d6000803e3d6000fd5b505050506040513d601f19601f82011682018060405250810190610ace9190610dcc565b505050505050565b6001805460405163e0fe939f60e01b81523360048201526001600160a01b039091169063e0fe939f90602401602060405180830381865afa158015610b1f573d6000803e3d6000fd5b505050506040513d601f19601f82011682018060405250810190610b439190610dab565b6004811115610b5457610b54610d95565b1015610b5f57600080fd5b60008111610baf5760405162461bcd60e51b815260206004820152601e60248201527f596f75206d7573742073776170206174206c65617374203120746f6b656e000060448201526064016102ac565b600080546001600160a01b0390811690851603610be757506001600160a01b0380831660009081526002602052604090205416610c1a565b6000546001600160a01b0390811690841603610c1a57506001600160a01b03808416600090815260026020526040902054165b60405163152cf14360e31b81523360048201526001600160a01b03858116602483015284811660448301526064820184905282169063a9678a1890608401600060405180830381600087803b158015610c7257600080fd5b505af1158015610c86573d6000803e3d6000fd5b5050505050505050565b61068c80610e3783390190565b6001600160a01b0381168114610cb257600080fd5b50565b600060208284031215610cc757600080fd5b8135610cd281610c9d565b9392505050565b60008060408385031215610cec57600080fd5b8235610cf781610c9d565b91506020830135610d0781610c9d565b809150509250929050565b600080600060608486031215610d2757600080fd5b8335610d3281610c9d565b9250602084013591506040840135610d4981610c9d565b809150509250925092565b600080600060608486031215610d6957600080fd5b8335610d7481610c9d565b92506020840135610d8481610c9d565b929592945050506040919091013590565b634e487b7160e01b600052602160045260246000fd5b600060208284031215610dbd57600080fd5b815160058110610cd257600080fd5b600060208284031215610dde57600080fd5b81518015158114610cd257600080fd5b600060208284031215610e0057600080fd5b5051919050565b6000825160005b81811015610e285760208186018101518583015201610e0e565b50600092019182525091905056fe608060405234801561001057600080fd5b5060405161068c38038061068c83398101604081905261002f9161008c565b600180546001600160a01b039384166001600160a01b03199182161790915560028054929093169181169190911790915560008054909116331790556100bf565b80516001600160a01b038116811461008757600080fd5b919050565b6000806040838503121561009f57600080fd5b6100a883610070565b91506100b660208401610070565b90509250929050565b6105be806100ce6000396000f3fe608060405234801561001057600080fd5b50600436106100575760003560e01c806325be124e1461005c5780637684cf701461008c578063a9678a181461009f578063d2f7265a146100b4578063d464d71c146100c7575b600080fd5b60025461006f906001600160a01b031681565b6040516001600160a01b0390911681526020015b60405180910390f35b60015461006f906001600160a01b031681565b6100b26100ad366004610480565b6100e8565b005b60005461006f906001600160a01b031681565b6100da6100d53660046104cb565b610329565b604051908152602001610083565b6000546001600160a01b031633146101585760405162461bcd60e51b815260206004820152602860248201527f4f6e6c79207468652065786368616e67652063616e2063616c6c207468697320604482015267333ab731ba34b7b760c11b60648201526084015b60405180910390fd5b600061016584848461034f565b6040516370a0823160e01b815230600482015290915081906001600160a01b038516906370a0823190602401602060405180830381865afa1580156101ae573d6000803e3d6000fd5b505050506040513d601f19601f820116820180604052508101906101d291906104e4565b116102345760405162461bcd60e51b815260206004820152602c60248201527f54686520706f6f6c20646f6573206e6f74206861766520656e6f75676820746f60448201526b06b656e7320746f20737761760a41b606482015260840161014f565b6040516323b872dd60e01b81526001600160a01b038681166004830152306024830152604482018490528516906323b872dd906064016020604051808303816000875af1158015610289573d6000803e3d6000fd5b505050506040513d601f19601f820116820180604052508101906102ad91906104fd565b5060405163a9059cbb60e01b81526001600160a01b0386811660048301526024820183905284169063a9059cbb906044016020604051808303816000875af11580156102fd573d6000803e3d6000fd5b505050506040513d601f19601f8201168201806040525081019061032191906104fd565b505050505050565b600154600254600091610349916001600160a01b0391821691168461034f565b92915050565b6040516370a0823160e01b815230600482015260009081906001600160a01b038616906370a0823190602401602060405180830381865afa158015610398573d6000803e3d6000fd5b505050506040513d601f19601f820116820180604052508101906103bc91906104e4565b6040516370a0823160e01b81523060048201529091506000906001600160a01b038616906370a0823190602401602060405180830381865afa158015610406573d6000803e3d6000fd5b505050506040513d601f19601f8201168201806040525081019061042a91906104e4565b9050600082610439838761053c565b6104439190610553565b905081811061045a57610457600183610575565b90505b9695505050505050565b80356001600160a01b038116811461047b57600080fd5b919050565b6000806000806080858703121561049657600080fd5b61049f85610464565b93506104ad60208601610464565b92506104bb60408601610464565b9396929550929360600135925050565b6000602082840312156104dd57600080fd5b5035919050565b6000602082840312156104f657600080fd5b5051919050565b60006020828403121561050f57600080fd5b8151801515811461051f57600080fd5b9392505050565b634e487b7160e01b600052601160045260246000fd5b808202811582820484141761034957610349610526565b60008261057057634e487b7160e01b600052601260045260246000fd5b500490565b818103818111156103495761034961052656fea2646970667358221220572392a8d1b74dbe119f3039a71214a50048d0529efa3b95274de61c0fc7ae6764736f6c63430008140033a26469706673582212203536596e4a64a3177827f6a8b4dddd4511e758f414cae7858f5da7a9d67b736a64736f6c6343000814003360806040523480156200001157600080fd5b5060405162000ae538038062000ae5833981016040819052620000349162000263565b818160036200004483826200037c565b5060046200005382826200037c565b5050506200006a836000196200007360201b60201c565b50505062000470565b6001600160a01b0382166200008757600080fd5b620000956000838362000099565b5050565b6001600160a01b038316620000c8578060026000828254620000bc919062000448565b909155506200010e9050565b6001600160a01b03831660009081526020819052604090205481811015620000ef57600080fd5b6001600160a01b03841660009081526020819052604090209082900390555b6001600160a01b0382166200012c576002805482900390556200014b565b6001600160a01b03821660009081526020819052604090208054820190555b816001600160a01b0316836001600160a01b03167fddf252ad1be2c89b69c2b068fc378daa952ba7f163c4a11628f55a4df523b3ef836040516200019191815260200190565b60405180910390a3505050565b634e487b7160e01b600052604160045260246000fd5b600082601f830112620001c657600080fd5b81516001600160401b0380821115620001e357620001e36200019e565b604051601f8301601f19908116603f011681019082821181831017156200020e576200020e6200019e565b816040528381526020925086838588010111156200022b57600080fd5b600091505b838210156200024f578582018301518183018401529082019062000230565b600093810190920192909252949350505050565b6000806000606084860312156200027957600080fd5b83516001600160a01b03811681146200029157600080fd5b60208501519093506001600160401b0380821115620002af57600080fd5b620002bd87838801620001b4565b93506040860151915080821115620002d457600080fd5b50620002e386828701620001b4565b9150509250925092565b600181811c908216806200030257607f821691505b6020821081036200032357634e487b7160e01b600052602260045260246000fd5b50919050565b601f8211156200037757600081815260208120601f850160051c81016020861015620003525750805b601f850160051c820191505b8181101562000373578281556001016200035e565b5050505b505050565b81516001600160401b038111156200039857620003986200019e565b620003b081620003a98454620002ed565b8462000329565b602080601f831160018114620003e85760008415620003cf5750858301515b600019600386901b1c1916600185901b17855562000373565b600085815260208120601f198616915b828110156200041957888601518255948401946001909101908401620003f8565b5085821015620004385787850151600019600388901b60f8161c191681555b5050505050600190811b01905550565b808201808211156200046a57634e487b7160e01b600052601160045260246000fd5b92915050565b61066580620004806000396000f3fe608060405234801561001057600080fd5b50600436106100935760003560e01c8063313ce56711610066578063313ce567146100fe57806370a082311461010d57806395d89b4114610136578063a9059cbb1461013e578063dd62ed3e1461015157600080fd5b806306fdde0314610098578063095ea7b3146100b657806318160ddd146100d957806323b872dd146100eb575b600080fd5b6100a061018a565b6040516100ad91906104af565b60405180910390f35b6100c96100c4366004610519565b61021c565b60405190151581526020016100ad565b6002545b6040519081526020016100ad565b6100c96100f9366004610543565b610236565b604051601281526020016100ad565b6100dd61011b36600461057f565b6001600160a01b031660009081526020819052604090205490565b6100a061025a565b6100c961014c366004610519565b610269565b6100dd61015f3660046105a1565b6001600160a01b03918216600090815260016020908152604080832093909416825291909152205490565b606060038054610199906105d4565b80601f01602080910402602001604051908101604052809291908181526020018280546101c5906105d4565b80156102125780601f106101e757610100808354040283529160200191610212565b820191906000526020600020905b8154815290600101906020018083116101f557829003601f168201915b5050505050905090565b60003361022a818585610277565b60019150505b92915050565b600033610244858285610289565b61024f8585856102da565b506001949350505050565b606060048054610199906105d4565b60003361022a8185856102da565b610284838383600161030b565b505050565b6001600160a01b0383811660009081526001602090815260408083209386168352929052205460001981146102d457818110156102c557600080fd5b6102d48484848403600061030b565b50505050565b6001600160a01b0383166102ed57600080fd5b6001600160a01b03821661030057600080fd5b6102848383836103b2565b6001600160a01b03841661031e57600080fd5b6001600160a01b03831661033157600080fd5b6001600160a01b03808516600090815260016020908152604080832093871683529290522082905580156102d457826001600160a01b0316846001600160a01b03167f8c5be1e5ebec7d5bd14f71427d1e84f3dd0314c0f7b2291e5b200ac8c7c3b925846040516103a491815260200190565b60405180910390a350505050565b6001600160a01b0383166103dd5780600260008282546103d2919061060e565b909155506104229050565b6001600160a01b0383166000908152602081905260409020548181101561040357600080fd5b6001600160a01b03841660009081526020819052604090209082900390555b6001600160a01b03821661043e5760028054829003905561045d565b6001600160a01b03821660009081526020819052604090208054820190555b816001600160a01b0316836001600160a01b03167fddf252ad1be2c89b69c2b068fc378daa952ba7f163c4a11628f55a4df523b3ef836040516104a291815260200190565b60405180910390a3505050565b600060208083528351808285015260005b818110156104dc578581018301518582016040015282016104c0565b506000604082860101526040601f19601f8301168501019250505092915050565b80356001600160a01b038116811461051457600080fd5b919050565b6000806040838503121561052c57600080fd5b610535836104fd565b946020939093013593505050565b60008060006060848603121561055857600080fd5b610561846104fd565b925061056f602085016104fd565b9150604084013590509250925092565b60006020828403121561059157600080fd5b61059a826104fd565b9392505050565b600080604083850312156105b457600080fd5b6105bd836104fd565b91506105cb602084016104fd565b90509250929050565b600181811c908216806105e857607f821691505b60208210810361060857634e487b7160e01b600052602260045260246000fd5b50919050565b8082018082111561023057634e487b7160e01b600052601160045260246000fdfea2646970667358221220140effa7989f5aba9456d30ee4ca3adba7309bff78d0d65f7c7c98b3af88afa864736f6c63430008140033608060405234801561001057600080fd5b50604051610b07380380610b0783398101604081905261002f9161005e565b600380546001600160a01b03909216610100026001600160a81b0319909216919091179055600060045561008e565b60006020828403121561007057600080fd5b81516001600160a01b038116811461008757600080fd5b9392505050565b610a6a8061009d6000396000f3fe608060405234801561001057600080fd5b50600436106101005760003560e01c806385b90a3611610097578063d8bff5a511610066578063d8bff5a51461026e578063e0fe939f1461028e578063e10591f3146102ba578063fb673569146102c757600080fd5b806385b90a36146101db5780639ab24eb0146101ee578063b4155bac14610225578063bdac388d1461024557600080fd5b80635f74bbde116100d35780635f74bbde14610172578063618aaadc146101855780636497c156146101985780637684cf70146101ab57600080fd5b806303e607311461010557806308ae4b0c1461011a5780633730a5f8146101535780633b77b2941461016a575b600080fd5b61011861011336600461085e565b6102da565b005b61013d610128366004610893565b60026020526000908152604090205460ff1681565b60405161014a91906108cb565b60405180910390f35b60035460ff165b604051901515815260200161014a565b6101186103dd565b6101186101803660046108f3565b610495565b61011861019336600461091d565b610549565b6101186101a636600461085e565b610627565b6003546101c39061010090046001600160a01b031681565b6040516001600160a01b03909116815260200161014a565b6101186101e936600461085e565b6106c9565b6102176101fc366004610893565b6001600160a01b031660009081526001602052604090205490565b60405190815260200161014a565b610217610233366004610893565b60006020819052908152604090205481565b610217610253366004610893565b6001600160a01b031660009081526020819052604090205490565b61021761027c366004610893565b60016020526000908152604090205481565b61013d61029c366004610893565b6001600160a01b031660009081526002602052604090205460ff1690565b60035461015a9060ff1681565b6101186102d536600461085e565b610743565b60035460ff16156103065760405162461bcd60e51b81526004016102fd90610949565b60405180910390fd5b60013360009081526002602052604090205460ff16600481111561032c5761032c6108b5565b1461033657600080fd5b6003546040516323b872dd60e01b8152336004820152306024820152604481018390526101009091046001600160a01b0316906323b872dd906064016020604051808303816000875af1158015610391573d6000803e3d6000fd5b505050506040513d601f19601f820116820180604052508101906103b59190610980565b5033600090815260208190526040812080548392906103d59084906109b8565b909155505050565b33600090815260016020526040902054633b9aca001161041f5733600090815260026020526040902080546004919060ff19166001835b021790555042600455565b33600090815260016020526040902054620f4240116104595733600090815260026020526040902080546003919060ff1916600183610414565b336000908152600160205260409020546103e81161049357336000908152600260208190526040909120805460ff19169091179055426004555b565b336000908152602081905260409020548111156104f45760405162461bcd60e51b815260206004820181905260248201527f596f7520646f6e277420686176652074686174206d616e792062616e616e617360448201526064016102fd565b33600090815260208190526040812080548392906105139084906109d1565b90915550506001600160a01b038216600090815260016020526040812080548392906105409084906109b8565b90915550505050565b60035460ff161561056c5760405162461bcd60e51b81526004016102fd90610949565b60043360009081526002602052604090205460ff166004811115610592576105926108b5565b146105af5760405162461bcd60e51b81526004016102fd906109e4565b600082116105ff5760405162461bcd60e51b815260206004820181905260248201527f596f75206d757374206973737565206174206c6561737420312062616e616e6160448201526064016102fd565b6001600160a01b038116600090815260208190526040812080548492906105409084906109b8565b60035460ff161561064a5760405162461bcd60e51b81526004016102fd90610949565b60043360009081526002602052604090205460ff166004811115610670576106706108b5565b1461068d5760405162461bcd60e51b81526004016102fd906109e4565b7f11c850933fb5ec32f0b575ce1d148d17b74607080ad03b232cff21edbdaa417f81146106b957600080fd5b506003805460ff19166001179055565b60035460ff16156106ec5760405162461bcd60e51b81526004016102fd90610949565b7f4128b49f5d615e47486fa7bc6f0eb485f8362c957907bb0ec7bd34e4c3653936811461071857600080fd5b50336000908152600260209081526040808320805460ff191660019081179091559183905290912055565b60035460ff16156107665760405162461bcd60e51b81526004016102fd90610949565b336000908152602081905260409020548111156107c55760405162461bcd60e51b815260206004820181905260248201527f596f7520646f6e277420686176652074686174206d616e792062616e616e617360448201526064016102fd565b60035460405163a9059cbb60e01b8152336004820152602481018390526101009091046001600160a01b03169063a9059cbb906044016020604051808303816000875af115801561081a573d6000803e3d6000fd5b505050506040513d601f19601f8201168201806040525081019061083e9190610980565b5033600090815260208190526040812080548392906103d59084906109d1565b60006020828403121561087057600080fd5b5035919050565b80356001600160a01b038116811461088e57600080fd5b919050565b6000602082840312156108a557600080fd5b6108ae82610877565b9392505050565b634e487b7160e01b600052602160045260246000fd5b60208101600583106108ed57634e487b7160e01b600052602160045260246000fd5b91905290565b6000806040838503121561090657600080fd5b61090f83610877565b946020939093013593505050565b6000806040838503121561093057600080fd5b8235915061094060208401610877565b90509250929050565b6020808252601e908201527f54686520636f756e63696c20686173206265656e20646973736f6c7665640000604082015260600190565b60006020828403121561099257600080fd5b815180151581146108ae57600080fd5b634e487b7160e01b600052601160045260246000fd5b808201808211156109cb576109cb6109a2565b92915050565b818103818111156109cb576109cb6109a2565b60208082526030908201527f546869732066756e6374696f6e2063616e206f6e6c792062652063616c6c656460408201526f20627920616e20616c7068612061706560801b60608201526080019056fea264697066735822122053061743e9df3a02480d71fc0000244fb112242c5924cb14179dc69c6aa590a964736f6c6343000814003360806040523480156200001157600080fd5b5060405162000ae538038062000ae5833981016040819052620000349162000263565b818160036200004483826200037c565b5060046200005382826200037c565b5050506200006a836000196200007360201b60201c565b50505062000470565b6001600160a01b0382166200008757600080fd5b620000956000838362000099565b5050565b6001600160a01b038316620000c8578060026000828254620000bc919062000448565b909155506200010e9050565b6001600160a01b03831660009081526020819052604090205481811015620000ef57600080fd5b6001600160a01b03841660009081526020819052604090209082900390555b6001600160a01b0382166200012c576002805482900390556200014b565b6001600160a01b03821660009081526020819052604090208054820190555b816001600160a01b0316836001600160a01b03167fddf252ad1be2c89b69c2b068fc378daa952ba7f163c4a11628f55a4df523b3ef836040516200019191815260200190565b60405180910390a3505050565b634e487b7160e01b600052604160045260246000fd5b600082601f830112620001c657600080fd5b81516001600160401b0380821115620001e357620001e36200019e565b604051601f8301601f19908116603f011681019082821181831017156200020e576200020e6200019e565b816040528381526020925086838588010111156200022b57600080fd5b600091505b838210156200024f578582018301518183018401529082019062000230565b600093810190920192909252949350505050565b6000806000606084860312156200027957600080fd5b83516001600160a01b03811681146200029157600080fd5b60208501519093506001600160401b0380821115620002af57600080fd5b620002bd87838801620001b4565b93506040860151915080821115620002d457600080fd5b50620002e386828701620001b4565b9150509250925092565b600181811c908216806200030257607f821691505b6020821081036200032357634e487b7160e01b600052602260045260246000fd5b50919050565b601f8211156200037757600081815260208120601f850160051c81016020861015620003525750805b601f850160051c820191505b8181101562000373578281556001016200035e565b5050505b505050565b81516001600160401b038111156200039857620003986200019e565b620003b081620003a98454620002ed565b8462000329565b602080601f831160018114620003e85760008415620003cf5750858301515b600019600386901b1c1916600185901b17855562000373565b600085815260208120601f198616915b828110156200041957888601518255948401946001909101908401620003f8565b5085821015620004385787850151600019600388901b60f8161c191681555b5050505050600190811b01905550565b808201808211156200046a57634e487b7160e01b600052601160045260246000fd5b92915050565b61066580620004806000396000f3fe608060405234801561001057600080fd5b50600436106100935760003560e01c8063313ce56711610066578063313ce567146100fe57806370a082311461010d57806395d89b4114610136578063a9059cbb1461013e578063dd62ed3e1461015157600080fd5b806306fdde0314610098578063095ea7b3146100b657806318160ddd146100d957806323b872dd146100eb575b600080fd5b6100a061018a565b6040516100ad91906104af565b60405180910390f35b6100c96100c4366004610519565b61021c565b60405190151581526020016100ad565b6002545b6040519081526020016100ad565b6100c96100f9366004610543565b610236565b604051601281526020016100ad565b6100dd61011b36600461057f565b6001600160a01b031660009081526020819052604090205490565b6100a061025a565b6100c961014c366004610519565b610269565b6100dd61015f3660046105a1565b6001600160a01b03918216600090815260016020908152604080832093909416825291909152205490565b606060038054610199906105d4565b80601f01602080910402602001604051908101604052809291908181526020018280546101c5906105d4565b80156102125780601f106101e757610100808354040283529160200191610212565b820191906000526020600020905b8154815290600101906020018083116101f557829003601f168201915b5050505050905090565b60003361022a818585610277565b60019150505b92915050565b600033610244858285610289565b61024f8585856102da565b506001949350505050565b606060048054610199906105d4565b60003361022a8185856102da565b610284838383600161030b565b505050565b6001600160a01b0383811660009081526001602090815260408083209386168352929052205460001981146102d457818110156102c557600080fd5b6102d48484848403600061030b565b50505050565b6001600160a01b0383166102ed57600080fd5b6001600160a01b03821661030057600080fd5b6102848383836103b2565b6001600160a01b03841661031e57600080fd5b6001600160a01b03831661033157600080fd5b6001600160a01b03808516600090815260016020908152604080832093871683529290522082905580156102d457826001600160a01b0316846001600160a01b03167f8c5be1e5ebec7d5bd14f71427d1e84f3dd0314c0f7b2291e5b200ac8c7c3b925846040516103a491815260200190565b60405180910390a350505050565b6001600160a01b0383166103dd5780600260008282546103d2919061060e565b909155506104229050565b6001600160a01b0383166000908152602081905260409020548181101561040357600080fd5b6001600160a01b03841660009081526020819052604090209082900390555b6001600160a01b03821661043e5760028054829003905561045d565b6001600160a01b03821660009081526020819052604090208054820190555b816001600160a01b0316836001600160a01b03167fddf252ad1be2c89b69c2b068fc378daa952ba7f163c4a11628f55a4df523b3ef836040516104a291815260200190565b60405180910390a3505050565b600060208083528351808285015260005b818110156104dc578581018301518582016040015282016104c0565b506000604082860101526040601f19601f8301168501019250505092915050565b80356001600160a01b038116811461051457600080fd5b919050565b6000806040838503121561052c57600080fd5b610535836104fd565b946020939093013593505050565b60008060006060848603121561055857600080fd5b610561846104fd565b925061056f602085016104fd565b9150604084013590509250925092565b60006020828403121561059157600080fd5b61059a826104fd565b9392505050565b600080604083850312156105b457600080fd5b6105bd836104fd565b91506105cb602084016104fd565b90509250929050565b600181811c908216806105e857607f821691505b60208210810361060857634e487b7160e01b600052602260045260246000fd5b50919050565b8082018082111561023057634e487b7160e01b600052601160045260246000fdfea2646970667358221220140effa7989f5aba9456d30ee4ca3adba7309bff78d0d65f7c7c98b3af88afa864736f6c63430008140033",
    "linkReferences": {}
  },
  "methodIdentifiers": {
    "TARGET()": "cc1f2afa",
    "already_claimed()": "4c91af3a",
    "claimFreeTokens()": "f14d2181",
    "djungleCoin()": "843ed335",
    "isSolved()": "64d98f6e",
    "monkeyToken()": "514dd499"
  },
  "id": 27
}