{
  "abi": [
    {
      "inputs": [
        {
          "internalType": "address",
          "name": "icyToken_",
          "type": "address"
        },
        {
          "internalType": "address",
          "name": "token2_",
          "type": "address"
        }
      ],
      "stateMutability": "nonpayable",
      "type": "constructor"
    },
    {
      "inputs": [],
      "name": "exchange",
      "outputs": [
        {
          "internalType": "address",
          "name": "",
          "type": "address"
        }
      ],
      "stateMutability": "view",
      "type": "function"
    },
    {
      "inputs": [
        {
          "internalType": "uint256",
          "name": "amount",
          "type": "uint256"
        }
      ],
      "name": "getTokensPerIcyToken",
      "outputs": [
        {
          "internalType": "uint256",
          "name": "",
          "type": "uint256"
        }
      ],
      "stateMutability": "view",
      "type": "function"
    },
    {
      "inputs": [],
      "name": "icyToken",
      "outputs": [
        {
          "internalType": "contract IERC20",
          "name": "",
          "type": "address"
        }
      ],
      "stateMutability": "view",
      "type": "function"
    },
    {
      "inputs": [
        {
          "internalType": "address",
          "name": "caller",
          "type": "address"
        },
        {
          "internalType": "address",
          "name": "fromToken",
          "type": "address"
        },
        {
          "internalType": "address",
          "name": "toToken",
          "type": "address"
        },
        {
          "internalType": "uint256",
          "name": "amount",
          "type": "uint256"
        }
      ],
      "name": "swap",
      "outputs": [],
      "stateMutability": "nonpayable",
      "type": "function"
    },
    {
      "inputs": [],
      "name": "token2",
      "outputs": [
        {
          "internalType": "contract IERC20",
          "name": "",
          "type": "address"
        }
      ],
      "stateMutability": "view",
      "type": "function"
    }
  ],
  "bytecode": {
    "object": "0x608060405234801561001057600080fd5b5060405161068c38038061068c83398101604081905261002f9161008c565b600180546001600160a01b039384166001600160a01b03199182161790915560028054929093169181169190911790915560008054909116331790556100bf565b80516001600160a01b038116811461008757600080fd5b919050565b6000806040838503121561009f57600080fd5b6100a883610070565b91506100b660208401610070565b90509250929050565b6105be806100ce6000396000f3fe608060405234801561001057600080fd5b50600436106100575760003560e01c806325be124e1461005c5780637684cf701461008c578063a9678a181461009f578063d2f7265a146100b4578063d464d71c146100c7575b600080fd5b60025461006f906001600160a01b031681565b6040516001600160a01b0390911681526020015b60405180910390f35b60015461006f906001600160a01b031681565b6100b26100ad366004610480565b6100e8565b005b60005461006f906001600160a01b031681565b6100da6100d53660046104cb565b610329565b604051908152602001610083565b6000546001600160a01b031633146101585760405162461bcd60e51b815260206004820152602860248201527f4f6e6c79207468652065786368616e67652063616e2063616c6c207468697320604482015267333ab731ba34b7b760c11b60648201526084015b60405180910390fd5b600061016584848461034f565b6040516370a0823160e01b815230600482015290915081906001600160a01b038516906370a0823190602401602060405180830381865afa1580156101ae573d6000803e3d6000fd5b505050506040513d601f19601f820116820180604052508101906101d291906104e4565b116102345760405162461bcd60e51b815260206004820152602c60248201527f54686520706f6f6c20646f6573206e6f74206861766520656e6f75676820746f60448201526b06b656e7320746f20737761760a41b606482015260840161014f565b6040516323b872dd60e01b81526001600160a01b038681166004830152306024830152604482018490528516906323b872dd906064016020604051808303816000875af1158015610289573d6000803e3d6000fd5b505050506040513d601f19601f820116820180604052508101906102ad91906104fd565b5060405163a9059cbb60e01b81526001600160a01b0386811660048301526024820183905284169063a9059cbb906044016020604051808303816000875af11580156102fd573d6000803e3d6000fd5b505050506040513d601f19601f8201168201806040525081019061032191906104fd565b505050505050565b600154600254600091610349916001600160a01b0391821691168461034f565b92915050565b6040516370a0823160e01b815230600482015260009081906001600160a01b038616906370a0823190602401602060405180830381865afa158015610398573d6000803e3d6000fd5b505050506040513d601f19601f820116820180604052508101906103bc91906104e4565b6040516370a0823160e01b81523060048201529091506000906001600160a01b038616906370a0823190602401602060405180830381865afa158015610406573d6000803e3d6000fd5b505050506040513d601f19601f8201168201806040525081019061042a91906104e4565b9050600082610439838761053c565b6104439190610553565b905081811061045a57610457600183610575565b90505b9695505050505050565b80356001600160a01b038116811461047b57600080fd5b919050565b6000806000806080858703121561049657600080fd5b61049f85610464565b93506104ad60208601610464565b92506104bb60408601610464565b9396929550929360600135925050565b6000602082840312156104dd57600080fd5b5035919050565b6000602082840312156104f657600080fd5b5051919050565b60006020828403121561050f57600080fd5b8151801515811461051f57600080fd5b9392505050565b634e487b7160e01b600052601160045260246000fd5b808202811582820484141761034957610349610526565b60008261057057634e487b7160e01b600052601260045260246000fd5b500490565b818103818111156103495761034961052656fea2646970667358221220572392a8d1b74dbe119f3039a71214a50048d0529efa3b95274de61c0fc7ae6764736f6c63430008140033",
    "linkReferences": {}
  },
  "methodIdentifiers": {
    "exchange()": "d2f7265a",
    "getTokensPerIcyToken(uint256)": "d464d71c",
    "icyToken()": "7684cf70",
    "swap(address,address,address,uint256)": "a9678a18",
    "token2()": "25be124e"
  },
  "id": 26
}