{
  "abi": [
    {
      "inputs": [],
      "stateMutability": "nonpayable",
      "type": "constructor"
    },
    {
      "inputs": [],
      "name": "buyTicket",
      "outputs": [],
      "stateMutability": "payable",
      "type": "function"
    },
    {
      "inputs": [
        {
          "internalType": "uint256",
          "name": "ticketId",
          "type": "uint256"
        }
      ],
      "name": "takeRide",
      "outputs": [],
      "stateMutability": "nonpayable",
      "type": "function"
    },
    {
      "inputs": [],
      "name": "ticket",
      "outputs": [
        {
          "internalType": "contract Ticket",
          "name": "",
          "type": "address"
        }
      ],
      "stateMutability": "view",
      "type": "function"
    },
    {
      "inputs": [],
      "name": "tripsTaken",
      "outputs": [
        {
          "internalType": "uint256",
          "name": "",
          "type": "uint256"
        }
      ],
      "stateMutability": "view",
      "type": "function"
    }
  ],
  "bytecode": {
    "object": "0x608060405234801561001057600080fd5b5060405161001d90610090565b60208082526010908201526f10da185a5c9b1a599d08151a58dad95d60821b6040820152606001604051809103906000f080158015610060573d6000803e3d6000fd5b50600180546001600160a01b03929092166001600160a01b0319928316179055600280549091163317905561009d565b6114148061045c83390190565b6103b0806100ac6000396000f3fe60806040526004361061003f5760003560e01c806328fa3149146100445780636cc25db714610066578063bf2282be146100a3578063edca914c146100c7575b600080fd5b34801561005057600080fd5b5061006461005f36600461030a565b6100cf565b005b34801561007257600080fd5b50600154610086906001600160a01b031681565b6040516001600160a01b0390911681526020015b60405180910390f35b3480156100af57600080fd5b506100b960005481565b60405190815260200161009a565b61006461020f565b6001546040516331a9108f60e11b81526004810183905233916001600160a01b031690636352211e90602401602060405180830381865afa158015610118573d6000803e3d6000fd5b505050506040513d601f19601f8201168201806040525081019061013c9190610323565b6001600160a01b0316146101975760405162461bcd60e51b815260206004820152601960248201527f596f7520646f6e2774206f776e2074686973207469636b65740000000000000060448201526064015b60405180910390fd5b60016000808282546101a99190610353565b9091555050600154604051630852cd8d60e31b8152600481018390526001600160a01b03909116906342966c6890602401600060405180830381600087803b1580156101f457600080fd5b505af1158015610208573d6000803e3d6000fd5b5050505050565b6002546001600160a01b031633146102ab573469152d02c7e14af6800000146102ab5760405162461bcd60e51b815260206004820152604260248201527f5469636b657420636f737473203130302c3030302065746865722c20696e666c60448201527f6174696f6e20686173206265656e2068697474696e67207573206861726420746064820152616f6f60f01b608482015260a40161018e565b6001546040516335313c2160e11b81523360048201526001600160a01b0390911690636a62784290602401600060405180830381600087803b1580156102f057600080fd5b505af1158015610304573d6000803e3d6000fd5b50505050565b60006020828403121561031c57600080fd5b5035919050565b60006020828403121561033557600080fd5b81516001600160a01b038116811461034c57600080fd5b9392505050565b8082018082111561037457634e487b7160e01b600052601160045260246000fd5b9291505056fea26469706673582212202c67c464100b72b442defdc5ed30ce9ac04c077ea8ef3148bbae57db41bf06ca64736f6c6343000814003360806040523480156200001157600080fd5b506040516200141438038062001414833981016040819052620000349162000077565b6004620000428282620001db565b5050600580546001600160a01b031916331790556000600655620002a7565b634e487b7160e01b600052604160045260246000fd5b600060208083850312156200008b57600080fd5b82516001600160401b0380821115620000a357600080fd5b818501915085601f830112620000b857600080fd5b815181811115620000cd57620000cd62000061565b604051601f8201601f19908116603f01168101908382118183101715620000f857620000f862000061565b8160405282815288868487010111156200011157600080fd5b600093505b8284101562000135578484018601518185018701529285019262000116565b600086848301015280965050505050505092915050565b600181811c908216806200016157607f821691505b6020821081036200018257634e487b7160e01b600052602260045260246000fd5b50919050565b601f821115620001d657600081815260208120601f850160051c81016020861015620001b15750805b601f850160051c820191505b81811015620001d257828155600101620001bd565b5050505b505050565b81516001600160401b03811115620001f757620001f762000061565b6200020f816200020884546200014c565b8462000188565b602080601f8311600181146200024757600084156200022e5750858301515b600019600386901b1c1916600185901b178555620001d2565b600085815260208120601f198616915b82811015620002785788860151825594840194600190910190840162000257565b5085821015620002975787850151600019600388901b60f8161c191681555b5050505050600190811b01905550565b61115d80620002b76000396000f3fe608060405234801561001057600080fd5b50600436106100b45760003560e01c80636352211e116100715780636352211e1461014a5780636a627842146101735780637ecebe0014610186578063a22cb465146101b4578063b88d4fde146101c7578063e985e9c5146101da57600080fd5b8063081812fc146100b9578063095ea7b3146100e957806323b872dd146100fe57806342842e0e1461011157806342966c6814610124578063605629d614610137575b600080fd5b6100cc6100c7366004610c92565b6101fd565b6040516001600160a01b0390911681526020015b60405180910390f35b6100fc6100f7366004610cc7565b610297565b005b6100fc61010c366004610cf1565b6103f7565b6100fc61011f366004610cf1565b61042d565b6100fc610132366004610c92565b610448565b6100fc610145366004610d2d565b6104d1565b6100cc610158366004610c92565b6000908152600160205260409020546001600160a01b031690565b6100fc610181366004610da0565b6106d2565b6101a6610194366004610da0565b60006020819052908152604090205481565b6040519081526020016100e0565b6100fc6101c2366004610dc2565b61077c565b6100fc6101d5366004610e14565b610840565b6101ed6101e8366004610ef0565b610878565b60405190151581526020016100e0565b6000818152600160205260408120546001600160a01b031661027b5760405162461bcd60e51b815260206004820152602c60248201527f5469636b65743a20617070726f76656420717565727920666f72206e6f6e657860448201526b34b9ba32b73a103a37b5b2b760a11b60648201526084015b60405180910390fd5b506000908152600260205260409020546001600160a01b031690565b6000818152600160205260409020546001600160a01b0390811690831681900361030d5760405162461bcd60e51b815260206004820152602160248201527f5469636b65743a20617070726f76616c20746f2063757272656e74206f776e656044820152603960f91b6064820152608401610272565b336001600160a01b038216148061032957506103298133610878565b61039b5760405162461bcd60e51b815260206004820152603860248201527f5469636b65743a20617070726f76652063616c6c6572206973206e6f74206f7760448201527f6e6572206e6f7220617070726f76656420666f7220616c6c00000000000000006064820152608401610272565b60008281526002602052604080822080546001600160a01b0319166001600160a01b0387811691821790925591518593918516917f8c5be1e5ebec7d5bd14f71427d1e84f3dd0314c0f7b2291e5b200ac8c7c3b92591a4505050565b61040133826108a6565b61041d5760405162461bcd60e51b815260040161027290610f23565b61042883838361097a565b505050565b61042883838360405180602001604052806000815250610840565b6005546001600160a01b031633146104b35760405162461bcd60e51b815260206004820152602860248201527f5469636b65743a2063616c6c6572206973206e6f74206f776e6572206e6f7220604482015267185c1c1c9bdd995960c21b6064820152608401610272565b600090815260016020526040902080546001600160a01b0319169055565b8342111561051a5760405162461bcd60e51b8152602060048201526016602482015275151a58dad95d0e881c195c9b5a5d08195e1c1a5c995960521b6044820152606401610272565b6000610524610ab3565b6001600160a01b038916600090815260208190526040812080547f51217405f731efee38f0562b88cd37d97785cf7799374acfedf0feaa862de87c928c928c928c9290919061057283610f74565b909155506040805160208101969096526001600160a01b0394851690860152929091166060840152608083015260a082015260c0810187905260e001604051602081830303815290604052805190602001206040516020016105eb92919061190160f01b81526002810192909252602282015260420190565b60408051601f198184030181528282528051602091820120600080855291840180845281905260ff88169284019290925260608301869052608083018590529092509060019060a0016020604051602081039080840390855afa158015610656573d6000803e3d6000fd5b505050602060405103519050886001600160a01b0316816001600160a01b0316146106bc5760405162461bcd60e51b8152602060048201526016602482015275151a58dad95d0e881a5b9d985b1a59081c195c9b5a5d60521b6044820152606401610272565b6106c789898961097a565b505050505050505050565b6005546001600160a01b0316331461073c5760405162461bcd60e51b815260206004820152602760248201527f5469636b65743a204f6e6c7920746865206f776e65722063616e206d696e74206044820152667469636b65747360c81b6064820152608401610272565b60068054600090815260016020526040812080546001600160a01b0319166001600160a01b0385161790558154919061077483610f74565b919050555050565b336001600160a01b038316036107d45760405162461bcd60e51b815260206004820152601960248201527f5469636b65743a20617070726f766520746f2063616c6c6572000000000000006044820152606401610272565b3360008181526003602090815260408083206001600160a01b03871680855290835292819020805460ff191686151590811790915590519081529192917f17307eab39ab6107e8899845ad3d59bd9653f200f220920489ca2b5937696c31910160405180910390a35050565b61084a33836108a6565b6108665760405162461bcd60e51b815260040161027290610f23565b61087284848484610b61565b50505050565b6001600160a01b03918216600090815260036020908152604080832093909416825291909152205460ff1690565b6000818152600160205260408120546001600160a01b031661091f5760405162461bcd60e51b815260206004820152602c60248201527f5469636b65743a206f70657261746f7220717565727920666f72206e6f6e657860448201526b34b9ba32b73a103a37b5b2b760a11b6064820152608401610272565b6000828152600160205260409020546001600160a01b039081169084168114806109625750836001600160a01b0316610957846101fd565b6001600160a01b0316145b8061097257506109728185610878565b949350505050565b6000818152600160205260409020546001600160a01b038481169116146109f55760405162461bcd60e51b815260206004820152602960248201527f5469636b65743a207472616e73666572206f6620746f6b656e2074686174206960448201526839903737ba1037bbb760b91b6064820152608401610272565b6001600160a01b038216610a575760405162461bcd60e51b8152602060048201526024808201527f5469636b65743a207472616e7366657220746f20746865207a65726f206164646044820152637265737360e01b6064820152608401610272565b60008181526001602052604080822080546001600160a01b0319166001600160a01b0386811691821790925591518493918716917fddf252ad1be2c89b69c2b068fc378daa952ba7f163c4a11628f55a4df523b3ef91a4505050565b60007f8b73c3c69bb8fe3d512ecc4cf759cc79239f7b179b0ffacaa9a75d522b39400f6004604051610ae59190610f9b565b60408051918290038220828201825260018352603160f81b602093840152815180840194909452838201527fc89efdaa54c0f20c7adf612882df0950f5a951637e0307cdcb4c672f298b8bc660608401524660808401523060a0808501919091528151808503909101815260c090930190528151910120919050565b610b6c84848461097a565b610b7884848484610b94565b6108725760405162461bcd60e51b81526004016102729061103a565b6000833b63ffffffff1615610c8757604051630a85bd0160e11b81526001600160a01b0385169063150b7a0290610bd590339089908890889060040161108c565b6020604051808303816000875af1925050508015610c10575060408051601f3d908101601f19168201909252610c0d918101906110fd565b60015b610c6d573d808015610c3e576040519150601f19603f3d011682016040523d82523d6000602084013e610c43565b606091505b508051600003610c655760405162461bcd60e51b81526004016102729061103a565b805181602001fd5b6001600160e01b031916630a85bd0160e11b149050610972565b506001949350505050565b600060208284031215610ca457600080fd5b5035919050565b80356001600160a01b0381168114610cc257600080fd5b919050565b60008060408385031215610cda57600080fd5b610ce383610cab565b946020939093013593505050565b600080600060608486031215610d0657600080fd5b610d0f84610cab565b9250610d1d60208501610cab565b9150604084013590509250925092565b600080600080600080600060e0888a031215610d4857600080fd5b610d5188610cab565b9650610d5f60208901610cab565b95506040880135945060608801359350608088013560ff81168114610d8357600080fd5b9699959850939692959460a0840135945060c09093013592915050565b600060208284031215610db257600080fd5b610dbb82610cab565b9392505050565b60008060408385031215610dd557600080fd5b610dde83610cab565b915060208301358015158114610df357600080fd5b809150509250929050565b634e487b7160e01b600052604160045260246000fd5b60008060008060808587031215610e2a57600080fd5b610e3385610cab565b9350610e4160208601610cab565b925060408501359150606085013567ffffffffffffffff80821115610e6557600080fd5b818701915087601f830112610e7957600080fd5b813581811115610e8b57610e8b610dfe565b604051601f8201601f19908116603f01168101908382118183101715610eb357610eb3610dfe565b816040528281528a6020848701011115610ecc57600080fd5b82602086016020830137600060208483010152809550505050505092959194509250565b60008060408385031215610f0357600080fd5b610f0c83610cab565b9150610f1a60208401610cab565b90509250929050565b60208082526031908201527f5469636b65743a207472616e736665722063616c6c6572206973206e6f74206f6040820152701ddb995c881b9bdc88185c1c1c9bdd9959607a1b606082015260800190565b600060018201610f9457634e487b7160e01b600052601160045260246000fd5b5060010190565b600080835481600182811c915080831680610fb757607f831692505b60208084108203610fd657634e487b7160e01b86526022600452602486fd5b818015610fea5760018114610fff5761102c565b60ff198616895284151585028901965061102c565b60008a81526020902060005b868110156110245781548b82015290850190830161100b565b505084890196505b509498975050505050505050565b60208082526032908201527f5469636b65743a207472616e7366657220746f206e6f6e20455243373231526560408201527131b2b4bb32b91034b6b83632b6b2b73a32b960711b606082015260800190565b600060018060a01b038087168352602081871681850152856040850152608060608501528451915081608085015260005b828110156110d95785810182015185820160a0015281016110bd565b5050600060a0828501015260a0601f19601f83011684010191505095945050505050565b60006020828403121561110f57600080fd5b81516001600160e01b031981168114610dbb57600080fdfea26469706673582212207a5e4c9ecdc63bec0817473e1677b7ed0c9dfb7ab350d8cefeb1b9b12f30592264736f6c63430008140033",
    "linkReferences": {}
  },
  "methodIdentifiers": {
    "buyTicket()": "edca914c",
    "takeRide(uint256)": "28fa3149",
    "ticket()": "6cc25db7",
    "tripsTaken()": "bf2282be"
  },
  "id": 18
}